{
  "_format": "hh-sol-artifact-1",
  "contractName": "CertificateNFT",
  "sourceName": "contracts/CertificateNFT.sol",
  "abi": [
    {
      "inputs": [],
      "stateMutability": "nonpayable",
      "type": "constructor"
    },
    {
      "inputs": [
        {
          "internalType": "address",
          "name": "sender",
          "type": "address"
        },
        {
          "internalType": "uint256",
          "name": "tokenId",
          "type": "uint256"
        },
        {
          "internalType": "address",
          "name": "owner",
          "type": "address"
        }
      ],
      "name": "ERC721IncorrectOwner",
      "type": "error"
    },
    {
      "inputs": [
        {
          "internalType": "address",
          "name": "operator",
          "type": "address"
        },
        {
          "internalType": "uint256",
          "name": "tokenId",
          "type": "uint256"
        }
      ],
      "name": "ERC721InsufficientApproval",
      "type": "error"
    },
    {
      "inputs": [
        {
          "internalType": "address",
          "name": "approver",
          "type": "address"
        }
      ],
      "name": "ERC721InvalidApprover",
      "type": "error"
    },
    {
      "inputs": [
        {
          "internalType": "address",
          "name": "operator",
          "type": "address"
        }
      ],
      "name": "ERC721InvalidOperator",
      "type": "error"
    },
    {
      "inputs": [
        {
          "internalType": "address",
          "name": "owner",
          "type": "address"
        }
      ],
      "name": "ERC721InvalidOwner",
      "type": "error"
    },
    {
      "inputs": [
        {
          "internalType": "address",
          "name": "receiver",
          "type": "address"
        }
      ],
      "name": "ERC721InvalidReceiver",
      "type": "error"
    },
    {
      "inputs": [
        {
          "internalType": "address",
          "name": "sender",
          "type": "address"
        }
      ],
      "name": "ERC721InvalidSender",
      "type": "error"
    },
    {
      "inputs": [
        {
          "internalType": "uint256",
          "name": "tokenId",
          "type": "uint256"
        }
      ],
      "name": "ERC721NonexistentToken",
      "type": "error"
    },
    {
      "inputs": [
        {
          "internalType": "address",
          "name": "owner",
          "type": "address"
        }
      ],
      "name": "OwnableInvalidOwner",
      "type": "error"
    },
    {
      "inputs": [
        {
          "internalType": "address",
          "name": "account",
          "type": "address"
        }
      ],
      "name": "OwnableUnauthorizedAccount",
      "type": "error"
    },
    {
      "anonymous": false,
      "inputs": [
        {
          "indexed": true,
          "internalType": "address",
          "name": "owner",
          "type": "address"
        },
        {
          "indexed": true,
          "internalType": "address",
          "name": "approved",
          "type": "address"
        },
        {
          "indexed": true,
          "internalType": "uint256",
          "name": "tokenId",
          "type": "uint256"
        }
      ],
      "name": "Approval",
      "type": "event"
    },
    {
      "anonymous": false,
      "inputs": [
        {
          "indexed": true,
          "internalType": "address",
          "name": "owner",
          "type": "address"
        },
        {
          "indexed": true,
          "internalType": "address",
          "name": "operator",
          "type": "address"
        },
        {
          "indexed": false,
          "internalType": "bool",
          "name": "approved",
          "type": "bool"
        }
      ],
      "name": "ApprovalForAll",
      "type": "event"
    },
    {
      "anonymous": false,
      "inputs": [
        {
          "indexed": false,
          "internalType": "uint256",
          "name": "_fromTokenId",
          "type": "uint256"
        },
        {
          "indexed": false,
          "internalType": "uint256",
          "name": "_toTokenId",
          "type": "uint256"
        }
      ],
      "name": "BatchMetadataUpdate",
      "type": "event"
    },
    {
      "anonymous": false,
      "inputs": [
        {
          "indexed": false,
          "internalType": "address",
          "name": "recipient",
          "type": "address"
        },
        {
          "indexed": false,
          "internalType": "uint256",
          "name": "tokenId",
          "type": "uint256"
        },
        {
          "indexed": false,
          "internalType": "string",
          "name": "tokenURI",
          "type": "string"
        }
      ],
      "name": "CertificateMinted",
      "type": "event"
    },
    {
      "anonymous": false,
      "inputs": [
        {
          "indexed": false,
          "internalType": "uint256",
          "name": "_tokenId",
          "type": "uint256"
        }
      ],
      "name": "MetadataUpdate",
      "type": "event"
    },
    {
      "anonymous": false,
      "inputs": [
        {
          "indexed": true,
          "internalType": "address",
          "name": "previousOwner",
          "type": "address"
        },
        {
          "indexed": true,
          "internalType": "address",
          "name": "newOwner",
          "type": "address"
        }
      ],
      "name": "OwnershipTransferred",
      "type": "event"
    },
    {
      "anonymous": false,
      "inputs": [
        {
          "indexed": true,
          "internalType": "address",
          "name": "from",
          "type": "address"
        },
        {
          "indexed": true,
          "internalType": "address",
          "name": "to",
          "type": "address"
        },
        {
          "indexed": true,
          "internalType": "uint256",
          "name": "tokenId",
          "type": "uint256"
        }
      ],
      "name": "Transfer",
      "type": "event"
    },
    {
      "inputs": [
        {
          "internalType": "address",
          "name": "to",
          "type": "address"
        },
        {
          "internalType": "uint256",
          "name": "tokenId",
          "type": "uint256"
        }
      ],
      "name": "approve",
      "outputs": [],
      "stateMutability": "nonpayable",
      "type": "function"
    },
    {
      "inputs": [
        {
          "internalType": "address",
          "name": "owner",
          "type": "address"
        }
      ],
      "name": "balanceOf",
      "outputs": [
        {
          "internalType": "uint256",
          "name": "",
          "type": "uint256"
        }
      ],
      "stateMutability": "view",
      "type": "function"
    },
    {
      "inputs": [
        {
          "internalType": "uint256",
          "name": "tokenId",
          "type": "uint256"
        }
      ],
      "name": "getApproved",
      "outputs": [
        {
          "internalType": "address",
          "name": "",
          "type": "address"
        }
      ],
      "stateMutability": "view",
      "type": "function"
    },
    {
      "inputs": [
        {
          "internalType": "address",
          "name": "owner",
          "type": "address"
        },
        {
          "internalType": "address",
          "name": "operator",
          "type": "address"
        }
      ],
      "name": "isApprovedForAll",
      "outputs": [
        {
          "internalType": "bool",
          "name": "",
          "type": "bool"
        }
      ],
      "stateMutability": "view",
      "type": "function"
    },
    {
      "inputs": [
        {
          "internalType": "address",
          "name": "recipient",
          "type": "address"
        },
        {
          "internalType": "string",
          "name": "tokenURI",
          "type": "string"
        }
      ],
      "name": "mintCertificate",
      "outputs": [
        {
          "internalType": "uint256",
          "name": "",
          "type": "uint256"
        }
      ],
      "stateMutability": "nonpayable",
      "type": "function"
    },
    {
      "inputs": [],
      "name": "name",
      "outputs": [
        {
          "internalType": "string",
          "name": "",
          "type": "string"
        }
      ],
      "stateMutability": "view",
      "type": "function"
    },
    {
      "inputs": [],
      "name": "owner",
      "outputs": [
        {
          "internalType": "address",
          "name": "",
          "type": "address"
        }
      ],
      "stateMutability": "view",
      "type": "function"
    },
    {
      "inputs": [
        {
          "internalType": "uint256",
          "name": "tokenId",
          "type": "uint256"
        }
      ],
      "name": "ownerOf",
      "outputs": [
        {
          "internalType": "address",
          "name": "",
          "type": "address"
        }
      ],
      "stateMutability": "view",
      "type": "function"
    },
    {
      "inputs": [],
      "name": "renounceOwnership",
      "outputs": [],
      "stateMutability": "nonpayable",
      "type": "function"
    },
    {
      "inputs": [
        {
          "internalType": "address",
          "name": "from",
          "type": "address"
        },
        {
          "internalType": "address",
          "name": "to",
          "type": "address"
        },
        {
          "internalType": "uint256",
          "name": "tokenId",
          "type": "uint256"
        }
      ],
      "name": "safeTransferFrom",
      "outputs": [],
      "stateMutability": "nonpayable",
      "type": "function"
    },
    {
      "inputs": [
        {
          "internalType": "address",
          "name": "from",
          "type": "address"
        },
        {
          "internalType": "address",
          "name": "to",
          "type": "address"
        },
        {
          "internalType": "uint256",
          "name": "tokenId",
          "type": "uint256"
        },
        {
          "internalType": "bytes",
          "name": "data",
          "type": "bytes"
        }
      ],
      "name": "safeTransferFrom",
      "outputs": [],
      "stateMutability": "nonpayable",
      "type": "function"
    },
    {
      "inputs": [
        {
          "internalType": "address",
          "name": "operator",
          "type": "address"
        },
        {
          "internalType": "bool",
          "name": "approved",
          "type": "bool"
        }
      ],
      "name": "setApprovalForAll",
      "outputs": [],
      "stateMutability": "nonpayable",
      "type": "function"
    },
    {
      "inputs": [
        {
          "internalType": "bytes4",
          "name": "interfaceId",
          "type": "bytes4"
        }
      ],
      "name": "supportsInterface",
      "outputs": [
        {
          "internalType": "bool",
          "name": "",
          "type": "bool"
        }
      ],
      "stateMutability": "view",
      "type": "function"
    },
    {
      "inputs": [],
      "name": "symbol",
      "outputs": [
        {
          "internalType": "string",
          "name": "",
          "type": "string"
        }
      ],
      "stateMutability": "view",
      "type": "function"
    },
    {
      "inputs": [
        {
          "internalType": "uint256",
          "name": "tokenId",
          "type": "uint256"
        }
      ],
      "name": "tokenURI",
      "outputs": [
        {
          "internalType": "string",
          "name": "",
          "type": "string"
        }
      ],
      "stateMutability": "view",
      "type": "function"
    },
    {
      "inputs": [
        {
          "internalType": "address",
          "name": "from",
          "type": "address"
        },
        {
          "internalType": "address",
          "name": "to",
          "type": "address"
        },
        {
          "internalType": "uint256",
          "name": "tokenId",
          "type": "uint256"
        }
      ],
      "name": "transferFrom",
      "outputs": [],
      "stateMutability": "nonpayable",
      "type": "function"
    },
    {
      "inputs": [
        {
          "internalType": "address",
          "name": "newOwner",
          "type": "address"
        }
      ],
      "name": "transferOwnership",
      "outputs": [],
      "stateMutability": "nonpayable",
      "type": "function"
    }
  ],
  "bytecode": "0x608060405234801561001057600080fd5b50336040518060400160405280601581526020017f4861636b466965737461436572746966696361746500000000000000000000008152506040518060400160405280600381526020017f4846430000000000000000000000000000000000000000000000000000000000815250816000908161008d919061043d565b50806001908161009d919061043d565b505050600073ffffffffffffffffffffffffffffffffffffffff168173ffffffffffffffffffffffffffffffffffffffff16036101125760006040517f1e4fbdf70000000000000000000000000000000000000000000000000000000081526004016101099190610550565b60405180910390fd5b6101218161012760201b60201c565b5061056b565b6000600760009054906101000a900473ffffffffffffffffffffffffffffffffffffffff16905081600760006101000a81548173ffffffffffffffffffffffffffffffffffffffff021916908373ffffffffffffffffffffffffffffffffffffffff1602179055508173ffffffffffffffffffffffffffffffffffffffff168173ffffffffffffffffffffffffffffffffffffffff167f8be0079c531659141344cd1fd0a4f28419497f9722a3daafe3b4186f6b6457e060405160405180910390a35050565b600081519050919050565b7f4e487b7100000000000000000000000000000000000000000000000000000000600052604160045260246000fd5b7f4e487b7100000000000000000000000000000000000000000000000000000000600052602260045260246000fd5b6000600282049050600182168061026e57607f821691505b60208210810361028157610280610227565b5b50919050565b60008190508160005260206000209050919050565b60006020601f8301049050919050565b600082821b905092915050565b6000600883026102e97fffffffffffffffffffffffffffffffffffffffffffffffffffffffffffffffff826102ac565b6102f386836102ac565b95508019841693508086168417925050509392505050565b6000819050919050565b6000819050919050565b600061033a6103356103308461030b565b610315565b61030b565b9050919050565b6000819050919050565b6103548361031f565b61036861036082610341565b8484546102b9565b825550505050565b600090565b61037d610370565b61038881848461034b565b505050565b5b818110156103ac576103a1600082610375565b60018101905061038e565b5050565b601f8211156103f1576103c281610287565b6103cb8461029c565b810160208510156103da578190505b6103ee6103e68561029c565b83018261038d565b50505b505050565b600082821c905092915050565b6000610414600019846008026103f6565b1980831691505092915050565b600061042d8383610403565b9150826002028217905092915050565b610446826101ed565b67ffffffffffffffff81111561045f5761045e6101f8565b5b6104698254610256565b6104748282856103b0565b600060209050601f8311600181146104a75760008415610495578287015190505b61049f8582610421565b865550610507565b601f1984166104b586610287565b60005b828110156104dd578489015182556001820191506020850194506020810190506104b8565b868310156104fa57848901516104f6601f891682610403565b8355505b6001600288020188555050505b505050505050565b600073ffffffffffffffffffffffffffffffffffffffff82169050919050565b600061053a8261050f565b9050919050565b61054a8161052f565b82525050565b60006020820190506105656000830184610541565b92915050565b6126ba8061057a6000396000f3fe608060405234801561001057600080fd5b506004361061010b5760003560e01c806370a08231116100a2578063a22cb46511610071578063a22cb465146102b8578063b88d4fde146102d4578063c87b56dd146102f0578063e985e9c514610320578063f2fde38b146103505761010b565b806370a0823114610242578063715018a6146102725780638da5cb5b1461027c57806395d89b411461029a5761010b565b8063095ea7b3116100de578063095ea7b3146101be57806323b872dd146101da57806342842e0e146101f65780636352211e146102125761010b565b806301ffc9a71461011057806306fdde03146101405780630712249f1461015e578063081812fc1461018e575b600080fd5b61012a60048036038101906101259190611ad4565b61036c565b6040516101379190611b1c565b60405180910390f35b6101486103cd565b6040516101559190611bc7565b60405180910390f35b61017860048036038101906101739190611d7c565b61045f565b6040516101859190611df1565b60405180910390f35b6101a860048036038101906101a39190611e38565b6104e1565b6040516101b59190611e74565b60405180910390f35b6101d860048036038101906101d39190611e8f565b6104fd565b005b6101f460048036038101906101ef9190611ecf565b610513565b005b610210600480360381019061020b9190611ecf565b610615565b005b61022c60048036038101906102279190611e38565b610635565b6040516102399190611e74565b60405180910390f35b61025c60048036038101906102579190611f22565b610647565b6040516102699190611df1565b60405180910390f35b61027a610701565b005b610284610715565b6040516102919190611e74565b60405180910390f35b6102a261073f565b6040516102af9190611bc7565b60405180910390f35b6102d260048036038101906102cd9190611f7b565b6107d1565b005b6102ee60048036038101906102e9919061205c565b6107e7565b005b61030a60048036038101906103059190611e38565b61080c565b6040516103179190611bc7565b60405180910390f35b61033a600480360381019061033591906120df565b61091f565b6040516103479190611b1c565b60405180910390f35b61036a60048036038101906103659190611f22565b6109b3565b005b6000634906490660e01b7bffffffffffffffffffffffffffffffffffffffffffffffffffffffff1916827bffffffffffffffffffffffffffffffffffffffffffffffffffffffff191614806103c657506103c582610a39565b5b9050919050565b6060600080546103dc9061214e565b80601f01602080910402602001604051908101604052809291908181526020018280546104089061214e565b80156104555780601f1061042a57610100808354040283529160200191610455565b820191906000526020600020905b81548152906001019060200180831161043857829003601f168201915b5050505050905090565b6000610469610b1b565b6008600081548092919061047c906121ae565b9190505550600060085490506104928482610ba2565b61049c8184610c9b565b7fde5d6fd45e32fffb472bcbaeedf6a2e3944633c9701eec7d99adfa07ad6104c18482856040516104cf939291906121f6565b60405180910390a18091505092915050565b60006104ec82610cf7565b506104f682610d7f565b9050919050565b61050f828261050a610dbc565b610dc4565b5050565b600073ffffffffffffffffffffffffffffffffffffffff168273ffffffffffffffffffffffffffffffffffffffff16036105855760006040517f64a0ae9200000000000000000000000000000000000000000000000000000000815260040161057c9190611e74565b60405180910390fd5b60006105998383610594610dbc565b610dd6565b90508373ffffffffffffffffffffffffffffffffffffffff168173ffffffffffffffffffffffffffffffffffffffff161461060f578382826040517f64283d7b00000000000000000000000000000000000000000000000000000000815260040161060693929190612234565b60405180910390fd5b50505050565b610630838383604051806020016040528060008152506107e7565b505050565b600061064082610cf7565b9050919050565b60008073ffffffffffffffffffffffffffffffffffffffff168273ffffffffffffffffffffffffffffffffffffffff16036106ba5760006040517f89c62b640000000000000000000000000000000000000000000000000000000081526004016106b19190611e74565b60405180910390fd5b600360008373ffffffffffffffffffffffffffffffffffffffff1673ffffffffffffffffffffffffffffffffffffffff168152602001908152602001600020549050919050565b610709610b1b565b6107136000610ff0565b565b6000600760009054906101000a900473ffffffffffffffffffffffffffffffffffffffff16905090565b60606001805461074e9061214e565b80601f016020809104026020016040519081016040528092919081815260200182805461077a9061214e565b80156107c75780601f1061079c576101008083540402835291602001916107c7565b820191906000526020600020905b8154815290600101906020018083116107aa57829003601f168201915b5050505050905090565b6107e36107dc610dbc565b83836110b6565b5050565b6107f2848484610513565b6108066107fd610dbc565b85858585611225565b50505050565b606061081782610cf7565b5060006006600084815260200190815260200160002080546108389061214e565b80601f01602080910402602001604051908101604052809291908181526020018280546108649061214e565b80156108b15780601f10610886576101008083540402835291602001916108b1565b820191906000526020600020905b81548152906001019060200180831161089457829003601f168201915b5050505050905060006108c26113d6565b905060008151036108d757819250505061091a565b60008251111561090c5780826040516020016108f49291906122a7565b6040516020818303038152906040529250505061091a565b610915846113ed565b925050505b919050565b6000600560008473ffffffffffffffffffffffffffffffffffffffff1673ffffffffffffffffffffffffffffffffffffffff16815260200190815260200160002060008373ffffffffffffffffffffffffffffffffffffffff1673ffffffffffffffffffffffffffffffffffffffff16815260200190815260200160002060009054906101000a900460ff16905092915050565b6109bb610b1b565b600073ffffffffffffffffffffffffffffffffffffffff168173ffffffffffffffffffffffffffffffffffffffff1603610a2d5760006040517f1e4fbdf7000000000000000000000000000000000000000000000000000000008152600401610a249190611e74565b60405180910390fd5b610a3681610ff0565b50565b60007f80ac58cd000000000000000000000000000000000000000000000000000000007bffffffffffffffffffffffffffffffffffffffffffffffffffffffff1916827bffffffffffffffffffffffffffffffffffffffffffffffffffffffff19161480610b0457507f5b5e139f000000000000000000000000000000000000000000000000000000007bffffffffffffffffffffffffffffffffffffffffffffffffffffffff1916827bffffffffffffffffffffffffffffffffffffffffffffffffffffffff1916145b80610b145750610b1382611456565b5b9050919050565b610b23610dbc565b73ffffffffffffffffffffffffffffffffffffffff16610b41610715565b73ffffffffffffffffffffffffffffffffffffffff1614610ba057610b64610dbc565b6040517f118cdaa7000000000000000000000000000000000000000000000000000000008152600401610b979190611e74565b60405180910390fd5b565b600073ffffffffffffffffffffffffffffffffffffffff168273ffffffffffffffffffffffffffffffffffffffff1603610c145760006040517f64a0ae92000000000000000000000000000000000000000000000000000000008152600401610c0b9190611e74565b60405180910390fd5b6000610c2283836000610dd6565b9050600073ffffffffffffffffffffffffffffffffffffffff168173ffffffffffffffffffffffffffffffffffffffff1614610c965760006040517f73c6ac6e000000000000000000000000000000000000000000000000000000008152600401610c8d9190611e74565b60405180910390fd5b505050565b80600660008481526020019081526020016000209081610cbb9190612477565b507ff8e1a15aba9398e019f0b49df1a4fde98ee17ae345cb5f6b5e2c27f5033e8ce782604051610ceb9190611df1565b60405180910390a15050565b600080610d03836114c0565b9050600073ffffffffffffffffffffffffffffffffffffffff168173ffffffffffffffffffffffffffffffffffffffff1603610d7657826040517f7e273289000000000000000000000000000000000000000000000000000000008152600401610d6d9190611df1565b60405180910390fd5b80915050919050565b60006004600083815260200190815260200160002060009054906101000a900473ffffffffffffffffffffffffffffffffffffffff169050919050565b600033905090565b610dd183838360016114fd565b505050565b600080610de2846114c0565b9050600073ffffffffffffffffffffffffffffffffffffffff168373ffffffffffffffffffffffffffffffffffffffff1614610e2457610e238184866116c2565b5b600073ffffffffffffffffffffffffffffffffffffffff168173ffffffffffffffffffffffffffffffffffffffff1614610eb557610e666000856000806114fd565b6001600360008373ffffffffffffffffffffffffffffffffffffffff1673ffffffffffffffffffffffffffffffffffffffff168152602001908152602001600020600082825403925050819055505b600073ffffffffffffffffffffffffffffffffffffffff168573ffffffffffffffffffffffffffffffffffffffff1614610f38576001600360008773ffffffffffffffffffffffffffffffffffffffff1673ffffffffffffffffffffffffffffffffffffffff168152602001908152602001600020600082825401925050819055505b846002600086815260200190815260200160002060006101000a81548173ffffffffffffffffffffffffffffffffffffffff021916908373ffffffffffffffffffffffffffffffffffffffff160217905550838573ffffffffffffffffffffffffffffffffffffffff168273ffffffffffffffffffffffffffffffffffffffff167fddf252ad1be2c89b69c2b068fc378daa952ba7f163c4a11628f55a4df523b3ef60405160405180910390a4809150509392505050565b6000600760009054906101000a900473ffffffffffffffffffffffffffffffffffffffff16905081600760006101000a81548173ffffffffffffffffffffffffffffffffffffffff021916908373ffffffffffffffffffffffffffffffffffffffff1602179055508173ffffffffffffffffffffffffffffffffffffffff168173ffffffffffffffffffffffffffffffffffffffff167f8be0079c531659141344cd1fd0a4f28419497f9722a3daafe3b4186f6b6457e060405160405180910390a35050565b600073ffffffffffffffffffffffffffffffffffffffff168273ffffffffffffffffffffffffffffffffffffffff160361112757816040517f5b08ba1800000000000000000000000000000000000000000000000000000000815260040161111e9190611e74565b60405180910390fd5b80600560008573ffffffffffffffffffffffffffffffffffffffff1673ffffffffffffffffffffffffffffffffffffffff16815260200190815260200160002060008473ffffffffffffffffffffffffffffffffffffffff1673ffffffffffffffffffffffffffffffffffffffff16815260200190815260200160002060006101000a81548160ff0219169083151502179055508173ffffffffffffffffffffffffffffffffffffffff168373ffffffffffffffffffffffffffffffffffffffff167f17307eab39ab6107e8899845ad3d59bd9653f200f220920489ca2b5937696c31836040516112189190611b1c565b60405180910390a3505050565b60008373ffffffffffffffffffffffffffffffffffffffff163b11156113cf578273ffffffffffffffffffffffffffffffffffffffff1663150b7a02868685856040518563ffffffff1660e01b8152600401611284949392919061259e565b6020604051808303816000875af19250505080156112c057506040513d601f19601f820116820180604052508101906112bd91906125ff565b60015b611344573d80600081146112f0576040519150601f19603f3d011682016040523d82523d6000602084013e6112f5565b606091505b50600081510361133c57836040517f64a0ae920000000000000000000000000000000000000000000000000000000081526004016113339190611e74565b60405180910390fd5b805160208201fd5b63150b7a0260e01b7bffffffffffffffffffffffffffffffffffffffffffffffffffffffff1916817bffffffffffffffffffffffffffffffffffffffffffffffffffffffff1916146113cd57836040517f64a0ae920000000000000000000000000000000000000000000000000000000081526004016113c49190611e74565b60405180910390fd5b505b5050505050565b606060405180602001604052806000815250905090565b60606113f882610cf7565b5060006114036113d6565b90506000815111611423576040518060200160405280600081525061144e565b8061142d84611786565b60405160200161143e9291906122a7565b6040516020818303038152906040525b915050919050565b60007f01ffc9a7000000000000000000000000000000000000000000000000000000007bffffffffffffffffffffffffffffffffffffffffffffffffffffffff1916827bffffffffffffffffffffffffffffffffffffffffffffffffffffffff1916149050919050565b60006002600083815260200190815260200160002060009054906101000a900473ffffffffffffffffffffffffffffffffffffffff169050919050565b80806115365750600073ffffffffffffffffffffffffffffffffffffffff168273ffffffffffffffffffffffffffffffffffffffff1614155b1561166a57600061154684610cf7565b9050600073ffffffffffffffffffffffffffffffffffffffff168373ffffffffffffffffffffffffffffffffffffffff16141580156115b157508273ffffffffffffffffffffffffffffffffffffffff168173ffffffffffffffffffffffffffffffffffffffff1614155b80156115c457506115c2818461091f565b155b1561160657826040517fa9fbf51f0000000000000000000000000000000000000000000000000000000081526004016115fd9190611e74565b60405180910390fd5b811561166857838573ffffffffffffffffffffffffffffffffffffffff168273ffffffffffffffffffffffffffffffffffffffff167f8c5be1e5ebec7d5bd14f71427d1e84f3dd0314c0f7b2291e5b200ac8c7c3b92560405160405180910390a45b505b836004600085815260200190815260200160002060006101000a81548173ffffffffffffffffffffffffffffffffffffffff021916908373ffffffffffffffffffffffffffffffffffffffff16021790555050505050565b6116cd838383611854565b61178157600073ffffffffffffffffffffffffffffffffffffffff168373ffffffffffffffffffffffffffffffffffffffff160361174257806040517f7e2732890000000000000000000000000000000000000000000000000000000081526004016117399190611df1565b60405180910390fd5b81816040517f177e802f00000000000000000000000000000000000000000000000000000000815260040161177892919061262c565b60405180910390fd5b505050565b60606000600161179584611915565b01905060008167ffffffffffffffff8111156117b4576117b3611c51565b5b6040519080825280601f01601f1916602001820160405280156117e65781602001600182028036833780820191505090505b509050600082602083010190505b600115611849578080600190039150507f3031323334353637383961626364656600000000000000000000000000000000600a86061a8153600a858161183d5761183c612655565b5b049450600085036117f4575b819350505050919050565b60008073ffffffffffffffffffffffffffffffffffffffff168373ffffffffffffffffffffffffffffffffffffffff161415801561190c57508273ffffffffffffffffffffffffffffffffffffffff168473ffffffffffffffffffffffffffffffffffffffff1614806118cd57506118cc848461091f565b5b8061190b57508273ffffffffffffffffffffffffffffffffffffffff166118f383610d7f565b73ffffffffffffffffffffffffffffffffffffffff16145b5b90509392505050565b600080600090507a184f03e93ff9f4daa797ed6e38ed64bf6a1f0100000000000000008310611973577a184f03e93ff9f4daa797ed6e38ed64bf6a1f010000000000000000838161196957611968612655565b5b0492506040810190505b6d04ee2d6d415b85acef810000000083106119b0576d04ee2d6d415b85acef810000000083816119a6576119a5612655565b5b0492506020810190505b662386f26fc1000083106119df57662386f26fc1000083816119d5576119d4612655565b5b0492506010810190505b6305f5e1008310611a08576305f5e10083816119fe576119fd612655565b5b0492506008810190505b6127108310611a2d576127108381611a2357611a22612655565b5b0492506004810190505b60648310611a505760648381611a4657611a45612655565b5b0492506002810190505b600a8310611a5f576001810190505b80915050919050565b6000604051905090565b600080fd5b600080fd5b60007fffffffff0000000000000000000000000000000000000000000000000000000082169050919050565b611ab181611a7c565b8114611abc57600080fd5b50565b600081359050611ace81611aa8565b92915050565b600060208284031215611aea57611ae9611a72565b5b6000611af884828501611abf565b91505092915050565b60008115159050919050565b611b1681611b01565b82525050565b6000602082019050611b316000830184611b0d565b92915050565b600081519050919050565b600082825260208201905092915050565b60005b83811015611b71578082015181840152602081019050611b56565b60008484015250505050565b6000601f19601f8301169050919050565b6000611b9982611b37565b611ba38185611b42565b9350611bb3818560208601611b53565b611bbc81611b7d565b840191505092915050565b60006020820190508181036000830152611be18184611b8e565b905092915050565b600073ffffffffffffffffffffffffffffffffffffffff82169050919050565b6000611c1482611be9565b9050919050565b611c2481611c09565b8114611c2f57600080fd5b50565b600081359050611c4181611c1b565b92915050565b600080fd5b600080fd5b7f4e487b7100000000000000000000000000000000000000000000000000000000600052604160045260246000fd5b611c8982611b7d565b810181811067ffffffffffffffff82111715611ca857611ca7611c51565b5b80604052505050565b6000611cbb611a68565b9050611cc78282611c80565b919050565b600067ffffffffffffffff821115611ce757611ce6611c51565b5b611cf082611b7d565b9050602081019050919050565b82818337600083830152505050565b6000611d1f611d1a84611ccc565b611cb1565b905082815260208101848484011115611d3b57611d3a611c4c565b5b611d46848285611cfd565b509392505050565b600082601f830112611d6357611d62611c47565b5b8135611d73848260208601611d0c565b91505092915050565b60008060408385031215611d9357611d92611a72565b5b6000611da185828601611c32565b925050602083013567ffffffffffffffff811115611dc257611dc1611a77565b5b611dce85828601611d4e565b9150509250929050565b6000819050919050565b611deb81611dd8565b82525050565b6000602082019050611e066000830184611de2565b92915050565b611e1581611dd8565b8114611e2057600080fd5b50565b600081359050611e3281611e0c565b92915050565b600060208284031215611e4e57611e4d611a72565b5b6000611e5c84828501611e23565b91505092915050565b611e6e81611c09565b82525050565b6000602082019050611e896000830184611e65565b92915050565b60008060408385031215611ea657611ea5611a72565b5b6000611eb485828601611c32565b9250506020611ec585828601611e23565b9150509250929050565b600080600060608486031215611ee857611ee7611a72565b5b6000611ef686828701611c32565b9350506020611f0786828701611c32565b9250506040611f1886828701611e23565b9150509250925092565b600060208284031215611f3857611f37611a72565b5b6000611f4684828501611c32565b91505092915050565b611f5881611b01565b8114611f6357600080fd5b50565b600081359050611f7581611f4f565b92915050565b60008060408385031215611f9257611f91611a72565b5b6000611fa085828601611c32565b9250506020611fb185828601611f66565b9150509250929050565b600067ffffffffffffffff821115611fd657611fd5611c51565b5b611fdf82611b7d565b9050602081019050919050565b6000611fff611ffa84611fbb565b611cb1565b90508281526020810184848401111561201b5761201a611c4c565b5b612026848285611cfd565b509392505050565b600082601f83011261204357612042611c47565b5b8135612053848260208601611fec565b91505092915050565b6000806000806080858703121561207657612075611a72565b5b600061208487828801611c32565b945050602061209587828801611c32565b93505060406120a687828801611e23565b925050606085013567ffffffffffffffff8111156120c7576120c6611a77565b5b6120d38782880161202e565b91505092959194509250565b600080604083850312156120f6576120f5611a72565b5b600061210485828601611c32565b925050602061211585828601611c32565b9150509250929050565b7f4e487b7100000000000000000000000000000000000000000000000000000000600052602260045260246000fd5b6000600282049050600182168061216657607f821691505b6020821081036121795761217861211f565b5b50919050565b7f4e487b7100000000000000000000000000000000000000000000000000000000600052601160045260246000fd5b60006121b982611dd8565b91507fffffffffffffffffffffffffffffffffffffffffffffffffffffffffffffffff82036121eb576121ea61217f565b5b600182019050919050565b600060608201905061220b6000830186611e65565b6122186020830185611de2565b818103604083015261222a8184611b8e565b9050949350505050565b60006060820190506122496000830186611e65565b6122566020830185611de2565b6122636040830184611e65565b949350505050565b600081905092915050565b600061228182611b37565b61228b818561226b565b935061229b818560208601611b53565b80840191505092915050565b60006122b38285612276565b91506122bf8284612276565b91508190509392505050565b60008190508160005260206000209050919050565b60006020601f8301049050919050565b600082821b905092915050565b60006008830261232d7fffffffffffffffffffffffffffffffffffffffffffffffffffffffffffffffff826122f0565b61233786836122f0565b95508019841693508086168417925050509392505050565b6000819050919050565b600061237461236f61236a84611dd8565b61234f565b611dd8565b9050919050565b6000819050919050565b61238e83612359565b6123a261239a8261237b565b8484546122fd565b825550505050565b600090565b6123b76123aa565b6123c2818484612385565b505050565b5b818110156123e6576123db6000826123af565b6001810190506123c8565b5050565b601f82111561242b576123fc816122cb565b612405846122e0565b81016020851015612414578190505b612428612420856122e0565b8301826123c7565b50505b505050565b600082821c905092915050565b600061244e60001984600802612430565b1980831691505092915050565b6000612467838361243d565b9150826002028217905092915050565b61248082611b37565b67ffffffffffffffff81111561249957612498611c51565b5b6124a3825461214e565b6124ae8282856123ea565b600060209050601f8311600181146124e157600084156124cf578287015190505b6124d9858261245b565b865550612541565b601f1984166124ef866122cb565b60005b82811015612517578489015182556001820191506020850194506020810190506124f2565b868310156125345784890151612530601f89168261243d565b8355505b6001600288020188555050505b505050505050565b600081519050919050565b600082825260208201905092915050565b600061257082612549565b61257a8185612554565b935061258a818560208601611b53565b61259381611b7d565b840191505092915050565b60006080820190506125b36000830187611e65565b6125c06020830186611e65565b6125cd6040830185611de2565b81810360608301526125df8184612565565b905095945050505050565b6000815190506125f981611aa8565b92915050565b60006020828403121561261557612614611a72565b5b6000612623848285016125ea565b91505092915050565b60006040820190506126416000830185611e65565b61264e6020830184611de2565b9392505050565b7f4e487b7100000000000000000000000000000000000000000000000000000000600052601260045260246000fdfea2646970667358221220c5ed5fc731899d255445d643c2d561aeb46bcf3d4f3b3d3432c0dd2a6fa982de64736f6c634300081c0033",
  "linkReferences": {},
  "deployedLinkReferences": {}
}